{
  "_format": "hh-sol-artifact-1",
  "contractName": "MMS",
  "sourceName": "contracts/MMS.sol",
  "abi": [
    {
      "inputs": [],
      "stateMutability": "nonpayable",
      "type": "constructor"
    },
    {
      "anonymous": false,
      "inputs": [
        {
          "indexed": false,
          "internalType": "string",
          "name": "_studentID",
          "type": "string"
        },
        {
          "indexed": false,
          "internalType": "string",
          "name": "_exam_code",
          "type": "string"
        },
        {
          "indexed": false,
          "internalType": "bool",
          "name": "_isMarksAssign",
          "type": "bool"
        },
        {
          "indexed": false,
          "internalType": "uint256",
          "name": "_studentsMarks",
          "type": "uint256"
        },
        {
          "indexed": false,
          "internalType": "bool",
          "name": "studentsExamResult",
          "type": "bool"
        }
      ],
      "name": "showDetails",
      "type": "event"
    },
    {
      "inputs": [
        {
          "internalType": "string",
          "name": "_exam_code",
          "type": "string"
        },
        {
          "internalType": "uint256",
          "name": "_total_marks",
          "type": "uint256"
        },
        {
          "internalType": "uint256",
          "name": "_require_marks",
          "type": "uint256"
        }
      ],
      "name": "add_exam",
      "outputs": [],
      "stateMutability": "nonpayable",
      "type": "function"
    },
    {
      "inputs": [
        {
          "internalType": "string",
          "name": "_studentID",
          "type": "string"
        }
      ],
      "name": "add_students",
      "outputs": [],
      "stateMutability": "nonpayable",
      "type": "function"
    },
    {
      "inputs": [
        {
          "internalType": "string",
          "name": "_studentID",
          "type": "string"
        },
        {
          "internalType": "string",
          "name": "_exam_code",
          "type": "string"
        },
        {
          "internalType": "uint256",
          "name": "_assigned_marks",
          "type": "uint256"
        }
      ],
      "name": "assign_marks",
      "outputs": [],
      "stateMutability": "nonpayable",
      "type": "function"
    },
    {
      "inputs": [
        {
          "internalType": "string",
          "name": "_studentID",
          "type": "string"
        },
        {
          "internalType": "string",
          "name": "_exam_code",
          "type": "string"
        }
      ],
      "name": "getDetails",
      "outputs": [
        {
          "internalType": "string",
          "name": "studentid",
          "type": "string"
        },
        {
          "internalType": "string",
          "name": "examcode",
          "type": "string"
        },
        {
          "internalType": "bool",
          "name": "studentMarks",
          "type": "bool"
        },
        {
          "internalType": "uint256",
          "name": "obtainedmarks",
          "type": "uint256"
        },
        {
          "internalType": "bool",
          "name": "Result",
          "type": "bool"
        }
      ],
      "stateMutability": "view",
      "type": "function"
    },
    {
      "inputs": [
        {
          "internalType": "uint256",
          "name": "",
          "type": "uint256"
        }
      ],
      "name": "studentadded",
      "outputs": [
        {
          "internalType": "string",
          "name": "",
          "type": "string"
        }
      ],
      "stateMutability": "view",
      "type": "function"
    },
    {
      "inputs": [],
      "name": "totalstudents",
      "outputs": [
        {
          "internalType": "uint256",
          "name": "",
          "type": "uint256"
        }
      ],
      "stateMutability": "view",
      "type": "function"
    }
  ],
  "bytecode": "0x608060405234801561001057600080fd5b50336000806101000a81548173ffffffffffffffffffffffffffffffffffffffff021916908373ffffffffffffffffffffffffffffffffffffffff1602179055506115a9806100606000396000f3fe608060405234801561001057600080fd5b50600436106100625760003560e01c80630a88a8651461006757806333f1cf7014610083578063351c80de146100a157806398b130eb146100bd578063d1afc8b3146100f1578063ec08242a1461010d575b600080fd5b610081600480360381019061007c9190610de5565b61013d565b005b61008b610314565b6040516100989190610e47565b60405180910390f35b6100bb60048036038101906100b69190610e8e565b61031a565b005b6100d760048036038101906100d29190610f19565b610618565b6040516100e8959493929190611034565b60405180910390f35b61010b60048036038101906101069190611095565b610869565b005b61012760048036038101906101229190611104565b610a62565b6040516101349190611131565b60405180910390f35b3373ffffffffffffffffffffffffffffffffffffffff1660008054906101000a900473ffffffffffffffffffffffffffffffffffffffff1673ffffffffffffffffffffffffffffffffffffffff16146101cb576040517f08c379a00000000000000000000000000000000000000000000000000000000081526004016101c29061119f565b60405180910390fd5b806005816040516101dc91906111fb565b908152602001604051809103902060009054906101000a900460ff1615610238576040517f08c379a000000000000000000000000000000000000000000000000000000000815260040161022f9061125e565b60405180910390fd5b600160058360405161024a91906111fb565b908152602001604051809103902060006101000a81548160ff02191690831515021790555060405180602001604052808381525060068360405161028e91906111fb565b908152602001604051809103902060008201518160000190805190602001906102b8929190610be8565b509050506001829080600181540180825580915050600190039060005260206000200160009091909190915090805190602001906102f7929190610be8565b506002600081548092919061030b906112ad565b91905055505050565b60025481565b3373ffffffffffffffffffffffffffffffffffffffff1660008054906101000a900473ffffffffffffffffffffffffffffffffffffffff1673ffffffffffffffffffffffffffffffffffffffff16146103a8576040517f08c379a000000000000000000000000000000000000000000000000000000000815260040161039f9061119f565b60405180910390fd5b826005816040516103b991906111fb565b908152602001604051809103902060009054906101000a900460ff16610414576040517f08c379a000000000000000000000000000000000000000000000000000000000815260040161040b90611342565b60405180910390fd5b8260038160405161042591906111fb565b908152602001604051809103902060009054906101000a900460ff16610480576040517f08c379a0000000000000000000000000000000000000000000000000000000008152600401610477906113ae565b60405180910390fd5b848460078260405161049291906111fb565b9081526020016040518091039020816040516104ae91906111fb565b908152602001604051809103902060009054906101000a900460ff161561050a576040517f08c379a00000000000000000000000000000000000000000000000000000000081526004016105019061141a565b60405180910390fd5b858560048260405161051c91906111fb565b908152602001604051809103902060010154811115610570576040517f08c379a000000000000000000000000000000000000000000000000000000000815260040161056790611486565b60405180910390fd5b600160078a60405161058291906111fb565b90815260200160405180910390208960405161059e91906111fb565b908152602001604051809103902060006101000a81548160ff0219169083151502179055508660088a6040516105d491906111fb565b9081526020016040518091039020896040516105f091906111fb565b90815260200160405180910390208190555061060d898989610b0e565b505050505050505050565b60608060008060003373ffffffffffffffffffffffffffffffffffffffff1660008054906101000a900473ffffffffffffffffffffffffffffffffffffffff1673ffffffffffffffffffffffffffffffffffffffff16146106ae576040517f08c379a00000000000000000000000000000000000000000000000000000000081526004016106a59061119f565b60405180910390fd5b866005816040516106bf91906111fb565b908152602001604051809103902060009054906101000a900460ff1661071a576040517f08c379a000000000000000000000000000000000000000000000000000000000815260040161071190611342565b60405180910390fd5b8660038160405161072b91906111fb565b908152602001604051809103902060009054906101000a900460ff16610786576040517f08c379a000000000000000000000000000000000000000000000000000000000815260040161077d906113ae565b60405180910390fd5b888860078b60405161079891906111fb565b90815260200160405180910390208a6040516107b491906111fb565b908152602001604051809103902060009054906101000a900460ff1660088c6040516107e091906111fb565b90815260200160405180910390208b6040516107fc91906111fb565b90815260200160405180910390205460098d60405161081b91906111fb565b90815260200160405180910390208c60405161083791906111fb565b908152602001604051809103902060009054906101000a900460ff169650965096509650965050509295509295909350565b3373ffffffffffffffffffffffffffffffffffffffff1660008054906101000a900473ffffffffffffffffffffffffffffffffffffffff1673ffffffffffffffffffffffffffffffffffffffff16146108f7576040517f08c379a00000000000000000000000000000000000000000000000000000000081526004016108ee9061119f565b60405180910390fd5b8260038160405161090891906111fb565b908152602001604051809103902060009054906101000a900460ff1615610964576040517f08c379a000000000000000000000000000000000000000000000000000000000815260040161095b906114f2565b60405180910390fd5b8282600081101580156109775750818111155b6109b6576040517f08c379a00000000000000000000000000000000000000000000000000000000081526004016109ad90611486565b60405180910390fd5b60016003876040516109c891906111fb565b908152602001604051809103902060006101000a81548160ff021916908315150217905550604051806060016040528087815260200186815260200185815250600487604051610a1891906111fb565b90815260200160405180910390206000820151816000019080519060200190610a42929190610be8565b506020820151816001015560408201518160020155905050505050505050565b60018181548110610a7257600080fd5b906000526020600020016000915090508054610a8d90611541565b80601f0160208091040260200160405190810160405280929190818152602001828054610ab990611541565b8015610b065780601f10610adb57610100808354040283529160200191610b06565b820191906000526020600020905b815481529060010190602001808311610ae957829003601f168201915b505050505081565b600482604051610b1e91906111fb565b908152602001604051809103902060020154811015610b8f576000600984604051610b4991906111fb565b908152602001604051809103902083604051610b6591906111fb565b908152602001604051809103902060006101000a81548160ff021916908315150217905550610be3565b6001600984604051610ba191906111fb565b908152602001604051809103902083604051610bbd91906111fb565b908152602001604051809103902060006101000a81548160ff0219169083151502179055505b505050565b828054610bf490611541565b90600052602060002090601f016020900481019282610c165760008555610c5d565b82601f10610c2f57805160ff1916838001178555610c5d565b82800160010185558215610c5d579182015b82811115610c5c578251825591602001919060010190610c41565b5b509050610c6a9190610c6e565b5090565b5b80821115610c87576000816000905550600101610c6f565b5090565b6000604051905090565b600080fd5b600080fd5b600080fd5b600080fd5b6000601f19601f8301169050919050565b7f4e487b7100000000000000000000000000000000000000000000000000000000600052604160045260246000fd5b610cf282610ca9565b810181811067ffffffffffffffff82111715610d1157610d10610cba565b5b80604052505050565b6000610d24610c8b565b9050610d308282610ce9565b919050565b600067ffffffffffffffff821115610d5057610d4f610cba565b5b610d5982610ca9565b9050602081019050919050565b82818337600083830152505050565b6000610d88610d8384610d35565b610d1a565b905082815260208101848484011115610da457610da3610ca4565b5b610daf848285610d66565b509392505050565b600082601f830112610dcc57610dcb610c9f565b5b8135610ddc848260208601610d75565b91505092915050565b600060208284031215610dfb57610dfa610c95565b5b600082013567ffffffffffffffff811115610e1957610e18610c9a565b5b610e2584828501610db7565b91505092915050565b6000819050919050565b610e4181610e2e565b82525050565b6000602082019050610e5c6000830184610e38565b92915050565b610e6b81610e2e565b8114610e7657600080fd5b50565b600081359050610e8881610e62565b92915050565b600080600060608486031215610ea757610ea6610c95565b5b600084013567ffffffffffffffff811115610ec557610ec4610c9a565b5b610ed186828701610db7565b935050602084013567ffffffffffffffff811115610ef257610ef1610c9a565b5b610efe86828701610db7565b9250506040610f0f86828701610e79565b9150509250925092565b60008060408385031215610f3057610f2f610c95565b5b600083013567ffffffffffffffff811115610f4e57610f4d610c9a565b5b610f5a85828601610db7565b925050602083013567ffffffffffffffff811115610f7b57610f7a610c9a565b5b610f8785828601610db7565b9150509250929050565b600081519050919050565b600082825260208201905092915050565b60005b83811015610fcb578082015181840152602081019050610fb0565b83811115610fda576000848401525b50505050565b6000610feb82610f91565b610ff58185610f9c565b9350611005818560208601610fad565b61100e81610ca9565b840191505092915050565b60008115159050919050565b61102e81611019565b82525050565b600060a082019050818103600083015261104e8188610fe0565b905081810360208301526110628187610fe0565b90506110716040830186611025565b61107e6060830185610e38565b61108b6080830184611025565b9695505050505050565b6000806000606084860312156110ae576110ad610c95565b5b600084013567ffffffffffffffff8111156110cc576110cb610c9a565b5b6110d886828701610db7565b93505060206110e986828701610e79565b92505060406110fa86828701610e79565b9150509250925092565b60006020828403121561111a57611119610c95565b5b600061112884828501610e79565b91505092915050565b6000602082019050818103600083015261114b8184610fe0565b905092915050565b7f4f6e6c7920666163756c74792063616e20757365207468697300000000000000600082015250565b6000611189601983610f9c565b915061119482611153565b602082019050919050565b600060208201905081810360008301526111b88161117c565b9050919050565b600081905092915050565b60006111d582610f91565b6111df81856111bf565b93506111ef818560208601610fad565b80840191505092915050565b600061120782846111ca565b915081905092915050565b7f53747564656e7420616c72656164792065786973742121000000000000000000600082015250565b6000611248601783610f9c565b915061125382611212565b602082019050919050565b600060208201905081810360008301526112778161123b565b9050919050565b7f4e487b7100000000000000000000000000000000000000000000000000000000600052601160045260246000fd5b60006112b882610e2e565b91507fffffffffffffffffffffffffffffffffffffffffffffffffffffffffffffffff8214156112eb576112ea61127e565b5b600182019050919050565b7f53747564656e74206e6f74206578697374212100000000000000000000000000600082015250565b600061132c601383610f9c565b9150611337826112f6565b602082019050919050565b6000602082019050818103600083015261135b8161131f565b9050919050565b7f4578616d206e6f74206578697374212100000000000000000000000000000000600082015250565b6000611398601083610f9c565b91506113a382611362565b602082019050919050565b600060208201905081810360008301526113c78161138b565b9050919050565b7f6d61726b7320616c72656164792061737369676e000000000000000000000000600082015250565b6000611404601483610f9c565b915061140f826113ce565b602082019050919050565b60006020820190508181036000830152611433816113f7565b9050919050565b7f496e76616c6964206d61726b7300000000000000000000000000000000000000600082015250565b6000611470600d83610f9c565b915061147b8261143a565b602082019050919050565b6000602082019050818103600083015261149f81611463565b9050919050565b7f4578616d20616c72656164792065786973742121000000000000000000000000600082015250565b60006114dc601483610f9c565b91506114e7826114a6565b602082019050919050565b6000602082019050818103600083015261150b816114cf565b9050919050565b7f4e487b7100000000000000000000000000000000000000000000000000000000600052602260045260246000fd5b6000600282049050600182168061155957607f821691505b6020821081141561156d5761156c611512565b5b5091905056fea2646970667358221220efbad272673a66e19f28b7977a04bbd620c8a8b955f4deb9a3f4168c2c6c3fda64736f6c63430008090033",
  "linkReferences": {},
  "deployedLinkReferences": {}
}