{
    "contractName": "MMS",
    "abi": [
        {
            "inputs": [],
            "stateMutability": "nonpayable",
            "type": "constructor"
        },
        {
            "anonymous": false,
            "inputs": [
                {
                    "indexed": false,
                    "internalType": "string",
                    "name": "_studentID",
                    "type": "string"
                },
                {
                    "indexed": false,
                    "internalType": "string",
                    "name": "_exam_code",
                    "type": "string"
                },
                {
                    "indexed": false,
                    "internalType": "bool",
                    "name": "_isMarksAssign",
                    "type": "bool"
                },
                {
                    "indexed": false,
                    "internalType": "uint256",
                    "name": "_studentsMarks",
                    "type": "uint256"
                },
                {
                    "indexed": false,
                    "internalType": "bool",
                    "name": "studentsExamResult",
                    "type": "bool"
                }
            ],
            "name": "showDetails",
            "type": "event"
        },
        {
            "inputs": [
                {
                    "internalType": "string",
                    "name": "_exam_code",
                    "type": "string"
                },
                {
                    "internalType": "uint256",
                    "name": "_total_marks",
                    "type": "uint256"
                },
                {
                    "internalType": "uint256",
                    "name": "_require_marks",
                    "type": "uint256"
                }
            ],
            "name": "add_exam",
            "outputs": [],
            "stateMutability": "nonpayable",
            "type": "function"
        },
        {
            "inputs": [
                {
                    "internalType": "string",
                    "name": "_studentID",
                    "type": "string"
                }
            ],
            "name": "add_students",
            "outputs": [],
            "stateMutability": "nonpayable",
            "type": "function"
        },
        {
            "inputs": [
                {
                    "internalType": "string",
                    "name": "_studentID",
                    "type": "string"
                },
                {
                    "internalType": "string",
                    "name": "_exam_code",
                    "type": "string"
                },
                {
                    "internalType": "uint256",
                    "name": "_assigned_marks",
                    "type": "uint256"
                }
            ],
            "name": "assign_marks",
            "outputs": [],
            "stateMutability": "nonpayable",
            "type": "function"
        },
        {
            "inputs": [
                {
                    "internalType": "string",
                    "name": "_studentID",
                    "type": "string"
                },
                {
                    "internalType": "string",
                    "name": "_exam_code",
                    "type": "string"
                }
            ],
            "name": "getDetails",
            "outputs": [
                {
                    "internalType": "string",
                    "name": "studentid",
                    "type": "string"
                },
                {
                    "internalType": "string",
                    "name": "examcode",
                    "type": "string"
                },
                {
                    "internalType": "bool",
                    "name": "studentMarks",
                    "type": "bool"
                },
                {
                    "internalType": "uint256",
                    "name": "obtainedmarks",
                    "type": "uint256"
                },
                {
                    "internalType": "bool",
                    "name": "Result",
                    "type": "bool"
                }
            ],
            "stateMutability": "view",
            "type": "function"
        }
    ],
    "bytecode": "608060405234801561001057600080fd5b50600080546001600160a01b03191633179055610c8b806100326000396000f3fe608060405234801561001057600080fd5b506004361061004c5760003560e01c80630a88a86514610051578063351c80de1461006657806398b130eb14610079578063d1afc8b3146100a6575b600080fd5b61006461005f3660046108bd565b6100b9565b005b6100646100743660046108fa565b6101cb565b61008c610087366004610967565b610447565b60405161009d959493929190610a27565b60405180910390f35b6100646100b4366004610a6c565b610616565b6000546001600160a01b031633146100ec5760405162461bcd60e51b81526004016100e390610aba565b60405180910390fd5b806003816040516100fd9190610af1565b9081526040519081900360200190205460ff161561015d5760405162461bcd60e51b815260206004820152601760248201527f53747564656e7420616c7265616479206578697374212100000000000000000060448201526064016100e3565b600160038360405161016f9190610af1565b9081526040805160209281900383018120805460ff1916941515949094179093559082018152838252516004906101a7908590610af1565b908152604051908190036020019020815181906101c49082610b95565b5050505050565b6000546001600160a01b031633146101f55760405162461bcd60e51b81526004016100e390610aba565b826003816040516102069190610af1565b9081526040519081900360200190205460ff1661025b5760405162461bcd60e51b815260206004820152601360248201527253747564656e74206e6f74206578697374212160681b60448201526064016100e3565b8260018160405161026c9190610af1565b9081526040519081900360200190205460ff166102be5760405162461bcd60e51b815260206004820152601060248201526f4578616d206e6f74206578697374212160801b60448201526064016100e3565b84846005826040516102d09190610af1565b9081526020016040518091039020816040516102ec9190610af1565b9081526040519081900360200190205460ff16156103435760405162461bcd60e51b815260206004820152601460248201527336b0b935b99030b63932b0b23c9030b9b9b4b3b760611b60448201526064016100e3565b85856002826040516103559190610af1565b9081526020016040518091039020600101548111156103a65760405162461bcd60e51b815260206004820152600d60248201526c496e76616c6964206d61726b7360981b60448201526064016100e3565b600160058a6040516103b89190610af1565b9081526020016040518091039020896040516103d49190610af1565b908152604051908190036020018120805492151560ff19909316929092179091558790600690610405908c90610af1565b9081526020016040518091039020896040516104219190610af1565b9081526040519081900360200190205561043c898989610787565b505050505050505050565b600080546060918291819081906001600160a01b0316331461047b5760405162461bcd60e51b81526004016100e390610aba565b8660038160405161048c9190610af1565b9081526040519081900360200190205460ff166104e15760405162461bcd60e51b815260206004820152601360248201527253747564656e74206e6f74206578697374212160681b60448201526064016100e3565b866001816040516104f29190610af1565b9081526040519081900360200190205460ff166105445760405162461bcd60e51b815260206004820152601060248201526f4578616d206e6f74206578697374212160801b60448201526064016100e3565b888860058b6040516105569190610af1565b90815260200160405180910390208a6040516105729190610af1565b9081526040519081900360200181205460ff1690600690610594908e90610af1565b90815260200160405180910390208b6040516105b09190610af1565b90815260200160405180910390205460078d6040516105cf9190610af1565b90815260200160405180910390208c6040516105eb9190610af1565b90815260405190819003602001902054939a509198509650945060ff16925050509295509295909350565b6000546001600160a01b031633146106405760405162461bcd60e51b81526004016100e390610aba565b826001816040516106519190610af1565b9081526040519081900360200190205460ff16156106a85760405162461bcd60e51b81526020600482015260146024820152734578616d20616c7265616479206578697374212160601b60448201526064016100e3565b8282818111156106ea5760405162461bcd60e51b815260206004820152600d60248201526c496e76616c6964206d61726b7360981b60448201526064016100e3565b600180876040516106fb9190610af1565b908152602001604051809103902060006101000a81548160ff02191690831515021790555060405180606001604052808781526020018681526020018581525060028760405161074b9190610af1565b908152604051908190036020019020815181906107689082610b95565b5060208201516001820155604090910151600290910155505050505050565b6002826040516107979190610af1565b9081526020016040518091039020600201548110156108035760006007846040516107c29190610af1565b9081526020016040518091039020836040516107de9190610af1565b908152604051908190036020019020805491151560ff19909216919091179055505050565b60016007846040516107c29190610af1565b505050565b634e487b7160e01b600052604160045260246000fd5b600082601f83011261084157600080fd5b813567ffffffffffffffff8082111561085c5761085c61081a565b604051601f8301601f19908116603f011681019082821181831017156108845761088461081a565b8160405283815286602085880101111561089d57600080fd5b836020870160208301376000602085830101528094505050505092915050565b6000602082840312156108cf57600080fd5b813567ffffffffffffffff8111156108e657600080fd5b6108f284828501610830565b949350505050565b60008060006060848603121561090f57600080fd5b833567ffffffffffffffff8082111561092757600080fd5b61093387838801610830565b9450602086013591508082111561094957600080fd5b5061095686828701610830565b925050604084013590509250925092565b6000806040838503121561097a57600080fd5b823567ffffffffffffffff8082111561099257600080fd5b61099e86838701610830565b935060208501359150808211156109b457600080fd5b506109c185828601610830565b9150509250929050565b60005b838110156109e65781810151838201526020016109ce565b838111156109f5576000848401525b50505050565b60008151808452610a138160208601602086016109cb565b601f01601f19169290920160200192915050565b60a081526000610a3a60a08301886109fb565b8281036020840152610a4c81886109fb565b951515604084015250506060810192909252151560809091015292915050565b600080600060608486031215610a8157600080fd5b833567ffffffffffffffff811115610a9857600080fd5b610aa486828701610830565b9660208601359650604090950135949350505050565b60208082526019908201527f4f6e6c7920666163756c74792063616e20757365207468697300000000000000604082015260600190565b60008251610b038184602087016109cb565b9190910192915050565b600181811c90821680610b2157607f821691505b602082108103610b4157634e487b7160e01b600052602260045260246000fd5b50919050565b601f82111561081557600081815260208120601f850160051c81016020861015610b6e5750805b601f850160051c820191505b81811015610b8d57828155600101610b7a565b505050505050565b815167ffffffffffffffff811115610baf57610baf61081a565b610bc381610bbd8454610b0d565b84610b47565b602080601f831160018114610bf85760008415610be05750858301515b600019600386901b1c1916600185901b178555610b8d565b600085815260208120601f198616915b82811015610c2757888601518255948401946001909101908401610c08565b5085821015610c455787850151600019600388901b60f8161c191681555b5050505050600190811b0190555056fea26469706673582212203030dfb68add4388b8b8db737bb979357f8037333a57f75a9d250607f12bcb7364736f6c634300080f0033",
    "sourcePath": "c:/StudentManagementSystem/marksblockchain/contracts/MMS.sol",
    "compiler": {
        "name": "solc",
        "version": "0.8.15+commit.e14f2714"
    },
    "functionHashes": {
        "add_exam(string,uint256,uint256)": "d1afc8b3",
        "add_students(string)": "0a88a865",
        "assign_marks(string,string,uint256)": "351c80de",
        "getDetails(string,string)": "98b130eb"
    },
    "gasEstimates": {
        "creation": {
            "codeDepositCost": "642200",
            "executionCost": "24911",
            "totalCost": "667111"
        },
        "external": {
            "add_exam(string,uint256,uint256)": "infinite",
            "add_students(string)": "infinite",
            "assign_marks(string,string,uint256)": "infinite",
            "getDetails(string,string)": "infinite"
        },
        "internal": {
            "updateStudentExamResult(string memory,string memory,uint256)": "infinite"
        }
    }
}